:100000000C9432060C944F060C944F060C94782FE7
:100010000C944F060C944F060C944F060C944F060C
:100020000C944F060C944F060C949B1A0C94571A80
:100030000C94E5260C944F060C944F060C944F0636
:100040000C944F060C944F060C944F060C944F06DC
:100050000C944F060C94741B0C944F060C944F0692
:100060000C944F060C944F060C944F060C944F06BC
:100070000C944F060C944F060C944F060C944F06AC
:100080000C944F060C944F060C944F060C944F069C
:100090000C944F060C944F060C944F060C944F068C
:1000A0000C944F060C944F060C944F0605010980E2
:1000B000A101850319012AB700150126B700950192
:1000C00075108100C0050C0901A101850419012AE0
:1000D000A002150126A002950175108100C005013E
:1000E0000906A1018506050719E029E71500250184
:1000F0009508750181020507190029EF15002501F2
:1001000095F075018102050819012905950575010C
:100110009102950175039101C00660FF0961A1017B
:100120000962150026FF00952075088102096315F4
:100130000026FF00952075089102C005010906A15F
:1001400001050719E029E7150025019508750181CA
:10015000029501750881010507190029FF15002680
:10016000FF00950675088100050819012905950508
:1001700075019102950175039101C0000000000016
:10018000000000000000000000000000000000006F
:100190000000000000000000000000000000007EE1
:1001A0000F00D4FFFFFFC700000078000000000030
:1001B0000000002A2B2800000000000000000000C2
:1001C00000000000000029000000002C1E34202147
:1001D0002224342627252E362D3738271E1F20218E
:1001E00022232425263333362E37381F04050607ED
:1001F00008090A0B0C0D0E0F101112131415161707
:1002000018191A1B1C1D2F3130232D350405060724
:1002100008090A0B0C0D0E0F1011121314151617E6
:1002200018191A1B1C1D2F3130354C20202020613D
:1002300062636465666768696A6B6C6D6E6F707126
:1002400072737475767778797A313233343536371C
:10025000383930524542545F2D3D5B5D5C233B276E
:10026000602C2E2F20202000DA0281FFD9F1DB2024
:10027000A4A62EAF00A0C0D30000A1C8D30000AE3A
:10028000D580A81F408D1420007F3F1F6432146466
:100290003214783C1E1E140A05556E6465660041D2
:1002A000646A757374005261697365004C6F776599
:1002B000720044656661756C74004C617965723AD0
:1002C00020003A002C206B00780080818283848596
:1002D000868788898A8B8C8D8E8F9091929394A03B
:1002E000A1A2A3A4A5A6A7A8A9AAABACADAEAFB086
:1002F000B1B2B3B4C0C1C2C3C4C5C6C7C8C9CACBF2
:10030000CCCDCECFD0D1D2D3D40000010101010198
:1003100001010101020202020202020202030303BE
:10032000030303030304040404040404050505058E
:10033000050606060606070707070708080808094E
:100340000909090A0A0A0B0B0B0C0C0C0D0D0D0EFA
:100350000E0E0F0F0F10101111111212131314148F
:10036000151516161717181819191A1A1B1B1C1D04
:100370001D1E1E1F2020212222232424252626275D
:100380002829292A2B2C2D2D2E2F3031323233348F
:1003900035363738393A3B3C3D3E3F404142434495
:1003A00045464748494A4C4D4E4F50515354555677
:1003B00058595A5B5D5E5F616264656668696B6C23
:1003C0006D6F7072737577787A7B7D7E808283859E
:1003D00087888A8C8E8F91939596989A9C9EA0A2DE
:1003E000A3A5A7A9ABADAFB1B3B5B7BABCBEC0C2E8
:1003F000C4C6C9CBCDCFD1D4D6D8DBDDDFE2E4E7AC
:10040000E9EBEEF0F3F5F8FAFDFFFFAA7F55402285
:1004100023252628292A2C2D2F3032333536383AF9
:100420003B3D3E4042434547494A4C4E505153554F
:1004300057595A5C5E6062646668696B6D6F717370
:100440007577797B7D7F81838587898A8C8E909271
:100450009496989A9C9E9FA1A3A5A7A8AAACAEAF7C
:10046000B1B3B4B6B8B9BBBCBEBFC1C2C3C5C6C7C1
:10047000C9CACBCCCDCED0D1D2D2D3D4D5D6D7D772
:10048000D8D9D9DADADBDBDBDCDCDCDCDCDDDDDDBA
:10049000DDDCDCDCDCDCDBDBDBDADAD9D9D8D7D7B6
:1004A000D6D5D4D3D2D2D1D0CECDCCCBCAC9C7C663
:1004B000C5C3C2C1BFBEBCBBB9B8B6B4B3B1AFAEA1
:1004C000ACAAA8A7A5A3A19F9E9C9A989694929047
:1004D0008E8C8A89878583817F7D7B79777573711F
:1004E0006F6D6B6968666462605E5C5A59575553FC
:1004F00051504E4C4A4947454342403E3D3B3A38B5
:1005000036353332302F2D2C2A2928262523220058
:10051000AF00AE2B0014001A00080015001700E011
:100520000004001600070009000A00E1001D001B7E
:1005300000060019000500000000000000E300773D
:100540007C2C002A00130012000C0018001C003440
:100550000033000F000E000D000B0029003800379B
:1005600000360010001100000000000000E60078D6
:100570007C28002B001E001F00200021002200E02C
:100580000000000000000000000000E1000000008A
:1005900000000000000000000000000000E3000177
:1005A000002C002A0027002600250024002300003C
:1005B0000000004F005200510050000000000000F9
:1005C00000000000000000000000000000E6000144
:1005D0000028002B001E021F02200221022202E03E
:1005E0000000000000000000000000E1000000002A
:1005F00000000000000000000000000000E3000117
:10060000002C002A0027022602250224022302359C
:1006100000310030002F002E002D00350231023055
:10062000022F022E022D02000000000000E6000151
:10063000002800007C0000000000000000000020F6
:100640007823782578277800000000217824782600
:1006500078287800000000000000000000E300019E
:10066000002C00000000000000000000000000005E
:10067000000000000000000000000000000000007A
:1006800000000000000000000000000000E6000183
:1006900000280009025B00030100A0FA0904000021
:1006A0000103010100092111010001224000070599
:1006B0008103080001090401000203000000092170
:1006C0001101000122220007058203200001070515
:1006D00003032000010904020001030000000921B6
:1006E00011010001226D00070584032000011201A1
:1006F0000002000000085346010001000102000151
:100700000C0343006F0072006E00650000001003D0
:1007100066006F006F007300740061006E000000DF
:10072000040309040000000000003E5B4F5B3E0034
:100730003E6B4F6B3E001C3E7C3E1C00183C7E3CDA
:1007400018001C577D571C001C5E7F5E1C000018A3
:100750003C180000FFE7C3E7FF0000182418000062
:10076000FFE7DBE7FF0030483A060E00262979292B
:100770002600407F05050700407F05253F005A3CC5
:10078000E73C5A007F3E1C1C0800081C1C3E7F00F2
:1007900014227F2214005F5F005F5F0006097F0163
:1007A0007F00006689956A0060606060600094A2C6
:1007B000FFA2940008047E04080010207E20100090
:1007C00008082A1C0800081C2A0808001E1010101F
:1007D00010000C1E0C1E0C0030383E383000060E87
:1007E0003E0E060000000000000000005F00000058
:1007F000000700070000147F147F1400242A7F2ABA
:100800001200231308646200364956205000000885
:1008100007030000001C224100000041221C0000D0
:100820002A1C7F1C2A0008083E080800008070303F
:1008300000000808080808000000606000002010A0
:10084000080402003E5149453E0000427F4000003E
:100850007249494946002141494D33001814127F1D
:1008600010002745454539003C4A4949310041219E
:1008700011090700364949493600464949291E00F1
:1008800000001400000000403400000000081422A2
:100890004100141414141400004122140800020131
:1008A000590906003E415D594E007C1211127C0030
:1008B0007F49494936003E41414122007F41414143
:1008C0003E007F49494941007F09090901003E4135
:1008D000415173007F0808087F0000417F410000FC
:1008E0002040413F01007F08142241007F404040EA
:1008F00040007F021C027F007F0408107F003E4101
:1009000041413E007F09090906003E4151215E0038
:100910007F091929460026494949320003017F0110
:1009200003003F4040403F001F2040201F003F4049
:1009300038403F0063140814630003047804030084
:100940006159494D4300007F4141410002040810B4
:100950002000004141417F000402010204004040A8
:100960004040400000030708000020545478400035
:100970007F284444380038444444280038444428FC
:100980007F0038545454180000087E0902001824CF
:10099000241C78007F080404780000447D40000097
:1009A0002040403D00007F102844000000417F406F
:1009B00000007C04780478007C0804047800384443
:1009C000444438007C1824241800182424187C007F
:1009D0007C080404080048545454240004043F4490
:1009E00024003C4040207C001C2040201C003C4057
:1009F00030403C004428102844004C9090907C00EB
:100A00004464544C44000008364100000000770064
:100A100000000041360800000201020402003C26EA
:100A200023263C0000000000000000000000000041
:100A300000000000C0E0F0F8F81800C0F0FCFEFF75
:100A4000FFFFFFFFFFFF7E0000000000000000002E
:100A500080C0E0E0E0E0E0E0E0E0C0800000000016
:100A600080C0E0E0E0E0E0E0E0E0C080000000E026
:100A7000E0C0C0E0E0E0E00000E0E0C0C0E0E0E0B6
:100A8000E0E0C0800000000080C0E0E0E0E0E0E0E6
:100A9000E0E0C08000000000000000000000000056
:100AA0000000E0F0F0F0E0ECEEF7F37020007C7C6A
:100AB0007C7E007E7E7E7F7F7F000080C0E07E5B4C
:100AC0004F5BFEC00000C000DCD7DEDEDED7DC00FE
:100AD000C000000000000000000000000000000056
:100AE00000000000000000000000000000F8FCFE14
:100AF000FFE000FFFFFFFFFFFF80FFFFFFFFFFFFA3
:100B0000FFFFFF1F0701000000000000000000FFC2
:100B1000FFFF8100000000000081C3C3C30000FF8D
:100B2000FFFF8100000000000081FFFFFF0000FFC9
:100B3000FFFF01000000000000FFFFFF01000000B8
:100B40000001FFFFFF0000FFFFFF9D1C1C1C1C1C81
:100B50001C9DDFDFDF00000000000000000000003F
:100B600000000F1F3F7F7F7F7F7F3F1E0C001F1FF6
:100B70001F3F003F3F3F7F7F7F00307B7F783020EB
:100B80002030787F3B0003000F7F0F0F0F7F0F0097
:100B90000300000000000000000000000000000052
:100BA00000000000000000000000000000030F1F14
:100BB0003F3F3F3F1F1F3F3F7F7F7F3F3F1F3F7FA5
:100BC0007F7F7F7C7878381C0F00000000000000D9
:100BD00001030707070707070707030100000000D5
:100BE00001030707070707070707030100000007BE
:100BF00007070000000000000007070700000000D2
:100C000000000707070000000103070707070707A1
:100C100007070301000000000000000000000000C2
:100C200000000000000000000000000000000000C4
:100C300000000000000000000000000000000000B4
:100C400000000000000000000000000000000000A4
:100C50000000000000000000000000000000000094
:100C60000000000011241FBECFEFDAE0DEBFCDBFD1
:100C700011E0A0E0B1E0E0E2F5E602C005900D92DF
:100C8000A83CB107D9F725E0A8ECB1E001C01D925E
:100C9000A43FB207E1F70E940C270C9427320C9472
:100CA00000008F929F92AF92BF92CF92DF92EF920D
:100CB000FF9290914701981305C09091E8039032FC
:100CC00009F44BC08093470190E29093E803C82E4B
:100CD000D12CF12CE12C1092E703C701B6012AE0D8
:100CE00030E040E050E00E940D31605D603331F053
:100CF000C114D104E104F10409F460E26093E60355
:100D000060E28AE0C816D104E104F10490F08AE0C0
:100D1000882E912CA12CB12CC701B601A5019401FC
:100D20000E940D31CA01B901A50194010E940D3143
:100D3000605D6093E50320E284E6C816D104E10417
:100D4000F10448F0C701B60124E630E040E050E08D
:100D50000E940D31205D2093E40384EE93E0FF9028
:100D6000EF90DF90CF90BF90AF909F908F900895BD
:100D7000482F2091E0039091A70357E0291302C068
:100D800080E0089530E0529FF001539FF00D112450
:100D9000E855FC4F8181681306C08081481303C069
:100DA00085818111EECF2F5F3F4F2770E7CFFC0188
:100DB000AC014C5F5F4F8FEF91E32191822728E0D8
:100DC00030E087FF09C0880F892721503109C9F712
:100DD000E417F50791F70895880FF7CFE8EDF0E0F5
:100DE00080818E7F80831092E2001092DA00109250
:100DF000E100A0EEB0E08C9181608C9380818F77D0
:100E0000808319BCA7EDB0E08C918E7F8C9380819C
:100E10008F7E80831092780308952091E4003091B2
:100E2000E50095E6A9012091EC00822F817020FF5A
:100E300006C08091E80080FF06C080E00895209100
:100E4000E80022FD1AC080919D03882389F0853037
:100E500089F08091EB0085FD0FC02091E400309176
:100E6000E50042175307F9F29150E1F684E0089546
:100E700082E0089583E0089581E0089580919F03C2
:100E800087FF13C08091E80082FF06C08091E800D0
:100E90008B778093E80004C080919D038111F2CF8D
:100EA000089580919D038823D9F38091E80080FF05
:100EB000F8CF8091E8008E77ECCF982F9093E900DF
:100EC000242F762F50E0891731F07091EC0020919B
:100ED000ED005091F00021FD07C09F5F973071F742
:100EE0008093E90081E008953091EB003E7F3093DC
:100EF000EB003091ED003D7F3093ED003091EB0041
:100F000031603093EB007093EC002093ED00509330
:100F1000F0002091EE0027FDE0CF80E00895B0E0E2
:100F2000A0E0E5E9F7E00C94B230C8EDD0E08881AC
:100F30008F7E8883E7EDF0E080818160808384E0AC
:100F400082BF81E08093780388818E7F888302EE60
:100F500010E0F80110821092DA0081EEC82ED12C38
:100F6000F601108288818F778883888180688883E2
:100F700088818F7D888319BC10929D0310929E03F7
:100F800010929C0310929B0390EEE92EF12CF70136
:100F900080818B7F808388818160888342E060E0EC
:100FA00080E00E945D07F60180818E7F8083F801DA
:100FB000808181608083808188608083F701808167
:100FC0008E7F8083888180618883CDB7DEB7E8E03B
:100FD0000C94CE30FC018091A5039091A603861756
:100FE0009707A0F06115710529F49091E8009E77AC
:100FF0009093E80090E06115710551F4911108C0DB
:101000008091E80082FF34C080E00895BC01F2CFF7
:1010100080919D038823C1F18530C1F18091E80062
:1010200083FD30C08091E80082FDEACF8091E80026
:1010300080FFE1CF8091F3002091F200382F6115FD
:10104000710519F02830310558F091E0283031054C
:1010500009F090E02091E8002E772093E800CBCFB4
:1010600081918093F100615071092F5F3F4FE7CF6D
:1010700080919D03882341F0853041F08091E80004
:1010800083FFBECF81E0089582E0089583E0089554
:101090000895089580917A03089587E797E79093DC
:1010A00001088093000888E19AE00FB6F894A895AB
:1010B000809360000FBE90936000FFCF2FB7F8942D
:1010C0006091720370917303809174039091750322
:1010D0002FBF0895209146012223C9F02091760365
:1010E00027FF15C0E62FE695E695E695EE31D8F494
:1010F000E80FF92FF11D677021E030E001C0220FE9
:101100006A95EAF720958281282322830895FC01BD
:10111000329608962191621303C0DF0111971C9249
:10112000E817F907B9F70895209146012223C1F085
:101130002091760327FF14C0E62FE695E695E69505
:10114000EE31F8F4E80FF92FF11D677021E030E07F
:1011500001C0220F6A95EAF78281822B828308956B
:10116000FC0132962FEF30E04191641751F02F3F90
:1011700019F4411101C0232F3F5F3630A9F72F3FEB
:1011800009F40895820F911D27FD9A95FC01628351
:101190000895A3E0B0E0EFECF8E00C94B8302091B3
:1011A0006F033091700328173907A1F090937003F3
:1011B00080936F03E0916D03F0916E03309751F0CF
:1011C00024E029839B838A830680F781E02DCE016A
:1011D000019609952396E2E00C94D430A3E0B0E0A8
:1011E000E4EFF8E00C94B83020916B0330916C037D
:1011F00028173907A1F090936C0380936B03E0915B
:101200006D03F0916E03309751F023E029839B83A7
:101210008A830680F781E02DCE01019609952396F9
:10122000E2E00C94D430FA01811101C0FB01099570
:101230000895E6EBF2E01182828184608283089552
:1012400080915D03982F9E7F61F48170826080930E
:101250005D0380916003893718F088E7809360030D
:1012600008958634B0F381708464F1CFAF92BF9259
:10127000DF92EF92FF920F931F93CF93DF93082F8C
:10128000162FE901E42FF0E0E65FFC4F611110C07A
:10129000E4915E2F4E2F4983E8835A83DF91CF91EB
:1012A0001F910F91FF90EF90DF90BF90AF90089546
:1012B000E62EF12C4491D42EE42FF0E026E0829F1C
:1012C000C00111242FEF30E0B9010E949430802F2B
:1012D00090E0880F991F55E5569FD001579FB00D9C
:1012E00011248A1B9B0B982F990F890F5901AE1857
:1012F000BF08AE9ED001AF9EB00DBE9EB00D1124B2
:101300005B2F189F80011124012F11275901A01A6A
:10131000B10AAE9E8001AF9E100DBE9E100D11242D
:101320005901A81AB108AE9CC001AF9C900DBE9C9B
:10133000900D1124892F9927281B390B2E9FC0014E
:101340002F9F900D3E9F900D1124E92F6230710563
:10135000A1F050F46115710509F49DCF613071055C
:1013600081F0EB2F512F97CF6430710569F080F039
:101370006630710509F48FCFF4CFE42F4B2F592F2E
:101380008ACFE42F412F87CFEB2F542F492F83CFC4
:101390004B2F5D2DE12F7FCF80E00895F894E82F4B
:1013A000E295EF70F0E031A1282F2F7081E090E0FE
:1013B00001C0880F2A95EAF7982F9095932391A35F
:1013C00092A1892B82A3789408959091760392FF3D
:1013D00006C0282F28712830F9F4877F846093FF96
:1013E00006C0282F28712831F1F4877E846120916E
:1013F000770320FF06C0382F38713830D9F4877F43
:10140000816021FF06C0282F28712831D1F4877E02
:10141000816194FD877E0895282F24712430F9F688
:101420008B7F8860DCCF282F2471243101F78B7EDD
:101430008861DDCF382F3171313019F78E7F8860A8
:10144000E0CF282F2171213121F78E7E8861E1CFF5
:1014500082389105B9F1B0F48133910509F47DC06A
:1014600048F48932910509F46DC08A32910509F476
:101470007BC008958533910509F45FC089339105D8
:1014800009F10895833E9105D9F138F4803E910524
:1014900029F1823E910579F10895863E9105D9F1B1
:1014A000873E910509F43EC0843E910541F52091A7
:1014B000770321FF24C08091760384FD19C087EE55
:1014C00090E0089520917603237009F05AC020918E
:1014D000770323FF14C089E290E0089520917603FA
:1014E00020FD38C03091770330FF09C024FF43C08E
:1014F00090E080E008952091760322FDF7CF0895D3
:101500002091760322FD3AC03091770330FD39C037
:1015100024FFF5CFEDCF2091760323FFF0CF24FDFC
:10152000E7CFCDCF2091760323FD2EC030917703F6
:1015300031FFEECF84EE90E008952091760325FFF1
:10154000DECFC9CF2091760325FD21C020917703FE
:1015500023FFD5CF89E390E0D2CF2091760326FFF9
:10156000CECF8AE290E008952091760326FFC7CF80
:1015700081E390E0089583EE90E0089582EE90E09C
:10158000089580EE90E0089586EE90E0089585E35A
:1015900090E008951F93CF93DF930E94280AEC01F7
:1015A000C11580E5D807F0F5C11580E4D80708F02B
:1015B0009CC0C03ED10520F5CD3CD10508F082C0CD
:1015C000C83AD10578F4C53AD10508F073C0C130E6
:1015D000D10519F1209709F1C430D105F0F4D0E01C
:1015E000C0E01BC0C33CD105D0F7C85AD0E0CC0F37
:1015F000DD1FC55BDE4F0990D881C02DD4640DC0BE
:10160000C11580E2D80708F0D1C0C11581E0D80724
:1016100008F05AC0C83ED10510F7CE01DF91CF9136
:101620001F910895C03682E5D80718F5C03482E5C9
:10163000D80708F06BC0C03282E5D80708F05FC059
:10164000C11582E5D80708F497C02C2F269526955A
:1016500080E2289F900111248C2F8370C1E0D0E09C
:1016600002C0CC0FDD1F8A95E2F7C22BD32BDD68B9
:10167000D4CFC03A82E5D80760F4C03882E5D807F5
:1016800008F459C0CF71D0E0DC2FCC27C46FD06AEA
:10169000C4CFC03C82E5D80708F462C0C03E82E5F2
:1016A000D80708F09CCFDC2FCC27CC27DF71C06F88
:1016B000D06AB3CFC55AD0E0C85BDE4FC881D0E056
:1016C000D064ABCFD065A9CF8D2F0E94E509182F2C
:1016D000CE0199270E94280AC12FD0E0DC2FCC2709
:1016E000CC27DF71C82BD92B98CFCE0199270E9428
:1016F000280ACC27DF70C82BD92BD06A8ECFCF71A8
:10170000D0E0DC2FCC27C16FD06A87CF2C2F269555
:101710002695277080E2289F900111248C2F8370DA
:10172000C1E0D0E002C0CC0FDD1F8A95E2F7C22BEA
:10173000D32BDC6872CF2C2F26952695277080E25C
:10174000289F900111248C2F8370C1E0D0E002C04B
:10175000CC0FDD1F8A95E2F7C22BD32BDA685DCF61
:101760008C2F8F710E94E509C82FD0E0DC2FCC2789
:10177000CC27DF71D06251CF8C2F8F710E94E50989
:1017800055E0D695C7955A95E1F7CF70D0E0DC2F9C
:10179000CC27282F30E084FF05C044E0220F331F00
:1017A0004A95E1F7C22BD32BD06937CF8D2F8F719C
:1017B0000E94E509182FCE0199270E94280AC12FFF
:1017C000D0E0DC2FCC27CC27DF71C82BD92BD2CF90
:1017D00080959091280298239093280208958091F3
:1017E000E0039091A703981301C008958F5F87705D
:1017F000FACF292F983078F5863068F590E036E0FA
:10180000239F800D911D1124682F677023E096950A
:1018100087952A95E1F7FC01EE0FFF1FE80FF91FEE
:10182000E451FE4F50E040E080E0219130E0062E90
:1018300002C0369527950A94E2F721703327042ECB
:1018400001C0220F0A94EAF7822B4F5F5F4F4330AB
:10185000510559F7089580E00895292F983098F59B
:10186000863088F590E036E0239F800D911D11248D
:10187000282F277041E001C0440F2A95EAF723E0A2
:10188000969587952A95E1F7FC01EE0FFF1FE80F6B
:10189000F91FE451FE4F30E020E070E05191DF018C
:1018A0001197CB01022E02C0969587950A94E2F714
:1018B000817081958527842385278C932F5F3F4FE7
:1018C0002330310559F70895809377020895909158
:1018D000770221E030E0F90101C0EE0F8A95EAF7C6
:1018E000D90102C0AA0FBB1F6A95E2F7EA2B01C01B
:1018F000220F4A95EAF7892F8E23E81305C0292B7A
:10190000822F0E94640C089520952923F9CF21E0AD
:1019100030E001C0220F8A95EAF720958091770286
:1019200082230E94640C089590910502809589237A
:1019300080930502282F277069F4891759F0909138
:10194000770392FF07C08695869586950E94870C3F
:1019500010920502089521E030E001C0220F8A951F
:10196000EAF780917702822B0E94640C089580939D
:1019700029020895982F92959F7011F0892F94E075
:10198000282F2695269511F09E5F822F869509F0C7
:101990009F5F892F0895CF93DF93682F81E06A308E
:1019A00019F06D3031F480E00E94590DDF91CF9134
:1019B00008958091F2059091F30526E0FC01ACEECC
:1019C000B5E001900D922A95E1F7603E08F458C009
:1019D00026E0FC0111922A95E9F7C091F205D09119
:1019E000F30546E050E0BE018CEE95E00E94B9316F
:1019F0009E012C5E3340892B41F1C90145E096954B
:101A000087954A95E1F741E050E0BA0102C0660FC0
:101A1000771F8A95E2F7CB016091EA037091EB039F
:101A2000862B972BB9016B5F7F4FE5E07695679525
:101A3000EA95E1F702C0440F551F6A95E2F7842B3F
:101A4000952B9093EB038093EA032A5F3F4F4091DD
:101A5000E903642F70E0C9010E949430481B4630AE
:101A600010F4240F311D211572E0370710F030E01B
:101A700020E024513C4F3093F3052093F20596CF9C
:101A8000F6E06F9FB00111246C5D784F46E050E0A6
:101A90000E94A331A2CFCF93DF93EC01FE0184918A
:101AA000811103C0DF91CF9108950E94CB0C219644
:101AB000F5CFCF93382FE091F205F091F305EC5E6E
:101AC000F3402091E903622F70E0CF010E9494302F
:101AD000281B822F332361F066E00E94DF30C82F7D
:101AE000C15010F4CF91089580E20E94CB0CF8CF42
:101AF0009F01280F311D2115324018F080E0F0E0E1
:101B0000E0E08E0F9F2F911D84519C4F9093F30521
:101B10008093F205E7CF0E944B0D81E00E94590DA2
:101B200008958091280290912702892B8093CA0101
:101B3000909126029923A1F0892B8093CA0180916C
:101B400046018823E1F18091760387FF38C08EE15A
:101B5000ECECF1E090E08150A0F59111109226029A
:101B600040E250E066E072E08AEC91E00E94B93118
:101B7000892B21F180E2EAECF1E0A6E0B2E00190ED
:101B80000D928A95E1F7E0916D03F0916E03309725
:101B9000A9F080914601882359F08091760387FF50
:101BA00007C08091CA018093CB0186E08093CA016F
:101BB0000280F381E02D8AEC91E00995089586E09A
:101BC000C7CF2191222339F29F5FC5CF10922802FF
:101BD00080914601ECECF1E08823B1F0809176032E
:101BE00087FF12C08EE1DF011D928A95E9F790E030
:101BF00080E00E94EE0890E080E00E94C908109208
:101C000027020E94910D089586E0EDCFAAE2B0E090
:101C1000ECE0FEE00C94B7308FE993E02091F10006
:101C2000DC012D93CD01B3E0873A9B07B9F7809192
:101C3000A003833009F472C0B8F4813009F449C0BC
:101C4000823009F4B3C08091E80083FF8BC2809199
:101C50009F039091A0039A3008F084C2E92FF0E02E
:101C6000E75DFD4C0C942F318A3009F48EC08B3027
:101C700009F471C0893039F780919F03813219F7D7
:101C80008091A3039091A403009711F00297D9F6D5
:101C90008091E800877F8093E8008091E80082FFD0
:101CA00038C09091F3008091F200029731F4809156
:101CB000F100813011F0863021F48091F1008093A1
:101CC0007A038091E8008B778093E8000E943E07BA
:101CD000BACF80919F03813A09F0B5CF8091E80097
:101CE000877F8093E8008091A3039091A403892BC0
:101CF00061F460E28BE793E070E00E94EA07809174
:101D0000E8008B778093E8009ECF60E090E080E071
:101D1000F3CF80919D038111C0CF95CF80919F0318
:101D2000813A09F090CF8091A3039091A403892B6D
:101D300009F089CF8091E800877F8093E800809147
:101D4000E80080FFFCCF809146018093F1008091F4
:101D5000E8008E77B9CF80919F03813209F073CF6D
:101D60008091A3039091A403892B09F06CCF8091FB
:101D7000E800877F8093E8000E943E078091A103DE
:101D8000809346010E94E60D5ECF80919F038132D1
:101D900009F059CF8091E800877F8093E8000E9486
:101DA0003E078091A203809379034DCF80919F03DA
:101DB000813A09F048CF8091E800877F8093E8005E
:101DC0008091E80080FFFCCF80917903BECF8038FE
:101DD00099F0823809F0C6C18091A3038F708730D3
:101DE00008F0C0C18093E9008091EB0085FB882753
:101DF00080F91092E90006C080919B0390919C03AA
:101E0000911182609091E800977F9093E800809311
:101E1000F1001092F1008091E8008E779FC1882335
:101E200009F48DC1823009F09DC18091A103811117
:101E300090C18091A3038F702FEF280F263008F0F8
:101E400091C18093E9002091EB0020FF82C1933083
:101E500031F48091EB0080628093EB007AC1909125
:101E6000EB0090619093EB0021E030E001C0220F85
:101E70008A95EAF72093EA001092EA008091EB003D
:101E80008860EACF81116EC11091A1031F77809104
:101E9000E3008078812B8093E3008091E800877FC6
:101EA0008093E8000E943E078091E80080FFFCCF0D
:101EB0008091E30080688093E30082E0111183E069
:101EC00080939D034FC18058823008F04BC1209110
:101ED000A1033091A2032C3DE3E03E07A1F583E08E
:101EE0008A838AE289834FB7F894DE01139620E053
:101EF0003EE051E2E32FF0E050935700E49120FFE1
:101F000003C0E295EF703F5FEF708E2F90E0EA30F4
:101F1000C0F0C7968D939D932F5F243159F74FBF23
:101F20008091E800877F8093E8006AE270E0CE014C
:101F300001960E94EA078091E8008B778093E80081
:101F400011C1C096E7CF8091A3039091A403432FC2
:101F500055274330510509F44AC078F54130510501
:101F600009F47AC08BE590E0E3E9F6E042305105F0
:101F700009F0F8C02091E800277F2093E800209125
:101F8000A5033091A6038217930708F49C0140E053
:101F90002115310509F065C0411163C08091E80049
:101FA00082FDC9CF80919D03882329F2853019F2E3
:101FB0008091E80083FFF2CFBECF4132510509F492
:101FC0003CC04232510509F0CDC08330910508F084
:101FD000C9C0FC01EE0FFF1FE554FE4F0190F081D8
:101FE000E02D88549E4FDC018C9190E01AC033277D
:101FF00021303105D1F02115310561F02230310554
:1020000009F0B0C0E0E0F7E0E4918E2F90E0E0E06E
:10201000F7E007C0E0E2F7E0E4918E2F90E0E0E225
:10202000F7E0009709F49EC0A5CFEEE0F7E0E49159
:102030008E2F90E0EEE0F7E0F4CF8330910508F0CA
:1020400091C0880F991FFC01EF53FE4F0190F08162
:10205000E02D89E090E08ECF82E190E0EEEEF6E0B8
:1020600089CF80919D03882309F465CF853009F4D9
:1020700062CF8091E80083FD5ECF8091E80082FD11
:102080008DCF8091E80080FF83CF9091F300809105
:10209000F2002115310519F08830910550F041E02A
:1020A000089709F040E08091E8008E778093E8007F
:1020B0006FCF44914093F100319621503109019640
:1020C000E8CF803809F04EC08091E800877F809388
:1020D000E80080919E038093F1009DCE811142C063
:1020E0001091A1031230F0F58091E800877F809372
:1020F000E80010939E030E943E07112311F084E034
:1021000005C08091E30087FDFACF81E080939D03B5
:1021100042E061EC81E00E945D0742E261EC84E014
:102120000E945D0742E261EC82E00E945D0742E2AC
:1021300060EC83E00E945D0780919D0313C0809155
:10214000A103813079F481E0933009F080E080933D
:102150009C031092E9008091E800877F8093E8005B
:102160000E943E078091E80083FF0AC08091E8004A
:10217000877F8093E8008091EB0080628093EB0082
:10218000AA96E3E00C94D330882321F00E94E80B58
:102190000E94910D0895882339F090912802982B80
:1021A000909328020E94910D0895882351F19CEF8D
:1021B000980F913A40F4682F8AEC91E00E946A08E7
:1021C0000E94910D089590E2980F983050F4877016
:1021D00091E001C0990F8A95EAF7892F0E94E80BD8
:1021E000EFCF9BE5980F933028F490E080E00E94B9
:1021F000EE080895885A8B3120F490E080E00E9428
:10220000C9080895CF93C82F8823D9F18CEF8C0F7C
:10221000813AC8F580914601882311F180917603B7
:1022200087FF1EC0EC2FE695E695E695F0E0E653B5
:10223000FE4F828190E04C2F477021E030E002C0D9
:10224000220F331F4A95E2F782239323892B91F0C3
:102250006C2F8AEC91E00E946A080E94910D0AC0DE
:10226000ECECF1E082ED91E02191C21789F38E1739
:102270009F07D1F76C2F8AEC91E00E9494080E948E
:10228000910DCF91089580E28C0F883068F4C7706B
:1022900021E030E001C0220FCA95EAF780912802C0
:1022A000822B80932802EBCFEBE5EC0FE33040F478
:1022B000F0E0E85BFE4F808190E00E94EE08E1CF05
:1022C000C85ACB31F0F6EC2FF0E0EE0FFF1FE55BC4
:1022D000FE4F808191810E94C908D3CF0F931F9335
:1022E000CF93DF93EC01FC0101900020E9F78F010F
:1022F00001501109C017D10728F0DF91CF911F912C
:102300000F91089589910E94CB0CF4CF0F931F93E6
:10231000CF93DF938B01EA0190919D03943061F597
:102320008093E9008FEF9091E800815095FD06C001
:1023300095ED9A95F1F700008111F5CF8091E800B5
:1023400085FF1AC00E940D07811111C08091E8001D
:1023500085FD06C08091E8008E778093E800F2CF7B
:10236000F80181918F018093F100219779F7809195
:10237000E8008E778093E800DF91CF911F910F9155
:10238000089543E050E0BC0184E00E948611089566
:10239000CF93DF93EC0180914601811111C048E099
:1023A00050E0BE0181E00E94861180E2FE01ABE7B1
:1023B000B3E001900D928A95E1F7DF91CF910895F6
:1023C0008091760387FF05C040E284E050E0BE01C3
:1023D000EACF48E081E0FACF6091420180915D034D
:1023E00080FF20C08091410143E0849FC0011124FF
:1023F00085549D4F539A2BB1277F3BB138605FB70F
:10240000F894FC01649FE00DF11D1124BF016817D1
:102410007907D1F45FBF8FE594E00197F1F700C031
:1024200000000895809143019091440123E0829F30
:10243000F0011124E554FD4F8917A0F61182108296
:1024400012828F5F3396F8CFFC014191CF01E8E013
:102450003BB9000000C047FF2BB9440F000000C08B
:1024600000C000C02BB900C0EA9591F7D0CFB0E012
:10247000A0E0EDE3F2E10C94AE30EC014C81042FCE
:1024800010E09801D8010E9444319B01AC010E94E8
:102490005A314B015C01E0E2F0E0E01BF10BA5E5F5
:1024A000B0E0AC019B010E945A316B017C019F019D
:1024B000DF010E943C319B01AC010E9465319B0110
:1024C000AC01280D391D4A1D5B1DC701B6010E94D4
:1024D0000D31F22E822F90E039E23F1520F143E0DA
:1024E000249F9001112435952795122F109500E017
:1024F00085E5E82EEF1880914501081718F10E9434
:10250000EC119C8181E0992319F0903219F48FEF3E
:102510008093400180914001890F8C83CDB7DEB755
:10252000ECE00C94CA3025E530E0B901681B790B6A
:102530009B01220F331F260F371F37FFD4CF2F5F8A
:102540003F4FD1CF8E2D01FD8F2D20914301622F62
:10255000600F7727771F9B01220F331F260F371F2E
:1025600025543D4F412F193708F048E760915F032C
:102570000E9436090F5FBFCFEF92FF920F931F9318
:10258000CF93DF93EC018C81811109C081E08C83B2
:102590001092BA0292E090933F0180933E018091A5
:1025A00043019091440123E0829FF0011124E554FE
:1025B000FD4F891758F110E003E0609145011617AF
:1025C00058F10E94EC1180913E012091BA02280F2F
:1025D0002093BA0290913F01980F90933F011916F2
:1025E00054F4022E000C330B409145014150550B21
:1025F0002417350734F0819580933E01813009F42A
:102600001C82CDB7DEB7E6E00C94D0301182108288
:1026100012828F5F3396CDCFE12EF12C70E0C7018F
:102620000E94F93020914301820F482F50E0209101
:10263000BA02022E000C330BE216F306D4F02091FE
:102640003F01022E000C330B2E153F0594F0809FA6
:102650009001112425543D4F40916003493708F003
:1026600048E760915F0380915E030E9436091F5F17
:10267000A4CFFA01EE0FFF1FE40FF51FE554FD4F45
:10268000118210821282F3CFB0E0A0E0EAE4F3E11D
:102690000C94AE30EC018A81BB24BA9480FD02C058
:1026A000BB24B394A09045018C81811109C081E0C5
:1026B000B81220C08FEF8A0D8093B90281E08C831D
:1026C000F12CE12C46E3842EEA14B8F00E94EC11C0
:1026D0008091B90291E0B9125AC0811153C0809122
:1026E000450181508093B9021C82CDB7DEB7ECE082
:1026F0000C94CA301092B902E1CF009143010E0D43
:102700001F2D111DC801880F991F080F191F05548F
:102710001D4FF80111821082128234E0C32ED12C99
:10272000912C8091B902890D873344F1682D0E9464
:10273000EB30892F082E000C990B8E159F05A9F4FC
:10274000809160038C9DA0018D9D500D11245595A5
:10275000479555954795493708F048E798016091A6
:102760005F0380915E030E9436099B0CF1E0CF1A53
:10277000D108B9F68FEFE81AF80AA6CF87FFDACFAB
:102780008A0DD8CF81508093B902BC82AECF90E041
:1027900001966091450170E00E94F9308093B90282
:1027A0008C83A3CFEF92FF921F93CF93DF93EC0123
:1027B00010E0EE24EA94F12C60914501161770F0B8
:1027C0000E94EC119A818C8190FF2AC08F5F8C83CC
:1027D000DF91CF911F91FF90EF90089520914301D9
:1027E000422F410F5527551FCA019A01220F331F4F
:1027F000280F391F25543D4F40916003493708F099
:1028000048E770E0C7010E94F930962F8C816091F3
:102810005F03199F800D11240E9436091F5FCCCFE2
:102820008150D5CF90915D0390FF0EC090914301F0
:102830002091440133E0939FF0011124E554FD4FB2
:10284000921718F00E94EC110895818360834283EF
:102850009F5F3396F5CFA3E0B0E0E1E3F4E10C94A1
:10286000B83090915D0390FF0DC0493708F048E7FC
:102870009E012F5F3F4F0E9436094B8169818A81FB
:102880000E9412142396E2E00C94D430CF93DF938D
:10289000EC01EDE5F3E0438162818C810E942B1411
:1028A0008C818F5F8C83DF91CF910895CF93DF93DD
:1028B000EC01EC81F0E0E15FFB4F4491EDE5F3E0EA
:1028C000628181810E942B148C818F5F8C83DF91C8
:1028D000CF910895EDE5F3E080818E7F80830E94A3
:1028E0001909E6EBF2E08281816082830E94EC119B
:1028F0000895B0E0A0E0EFE7F4E10C94B0307C0183
:102900005B016A0180915B0201E010E08A3010F403
:102910000AE010E0C1E0D0E0B501C701F601099579
:10292000811104C021960C171D072CF4CDB7DEB71A
:10293000EAE00C94CC30CC9F9001CD9F300D300D4F
:10294000112490E080E045E34A95F1F700000196FC
:1029500082179307C1F7E0CF80913602811119C029
:1029600088EC90E02091E30027FD10C0EFE3FCE944
:102970003197F1F700C000000197A1F782E0809342
:1029800036020E94EE0610929D0303C081E0809300
:10299000360281E090913602913011F080E0089586
:1029A00008950E94AC14882359F0E0916D03F091D2
:1029B0006E03309729F00190F081E02D099508957C
:1029C00080E008950F931F930E94AC14882329F090
:1029D0000E945E081F910F9108950E945E08009169
:1029E0005C0210915D0220915E0230915F02600FE7
:1029F000711F821F931FEECF1F93CF93DF93182F6A
:102A0000D0E0C0E0893311F4C0E5D0E0812F0E940E
:102A10000211209739F4812F0E94D510DF91CF91B8
:102A20001F9108958FE99FE00197F1F700C0000022
:102A30002197EFCF0E94E60D2FEF84E39CE0215019
:102A400080409040E1F700C0000088E19AE00FB6B6
:102A5000F894A895809360000FBE90936000FFCF1C
:102A6000CF93DF93C9EAD1E060E0CE010E94F33159
:102A70002196C11584E0D807B9F7DF91CF91089569
:102A80001F93CF93DF93122F8430E0F46830D0F49B
:102A90004630C0F4C42FD0E0CC0FDD1F9CE0699F0E
:102AA000C00DD11D112490E6899FC00DD11D1124A8
:102AB000632FCE0189960E94F331612FCE018A9651
:102AC0000E94F331DF91CF911F910895AF92BF9291
:102AD000CF92DF92EF92FF921F93CF93DF9383E128
:102AE000C82E85E0D82ED0E07601C0E014C0F501F4
:102AF00025913491412F6C2F8D2F0E94401582E03B
:102B0000A80EB11C1F5F163091F78CE0E80EF11C87
:102B1000CF5FC83019F0570110E0E9CFDF5F80E6E2
:102B2000C80ED11CD43001F7DF91CF911F91FF90D7
:102B3000EF90DF90CF90BF90AF900895CF93C82FC4
:102B40006FEF811163E285E290E00E94F3316FEF55
:102B5000C11168E086E290E00E94F3316FEFC1118D
:102B600069E187E290E00E94F331CF91089580E01F
:102B70000E949E1560E088E290E00E94F3310E947E
:102B800066150E94301581E00E949E1508950F93EE
:102B90001F93CF93DF93843030F5683020F54630B3
:102BA00010F5C42FD0E0CC0FDD1F2CE0629FC00DCC
:102BB000D11D112430E6839FC00DD11D1124CE01FB
:102BC00089960E94CF31082F10E0102F0027CE01E8
:102BD0008A960E94CF319801282BC901DF91CF91AD
:102BE0001F910F91089590E080E0F8CF462F783044
:102BF00040F4663030F4843020F4672F0E94C7150B
:102C0000089590E080E00895CF92DF92FF920F93B5
:102C10001F93CF93DF936C0100917702809129027B
:102C2000082BC3E0D0E010E0FC2EC8010C2E02C03F
:102C3000959587950A94E2F780FD0CC02197A0F73F
:102C4000F12C8F2DDF91CF911F910F91FF90DF908D
:102C5000CF900895B6018C2F0E94F6150E94CA0AE3
:102C6000019761F3EECFCF93DF93EC010E9404163E
:102C7000BE010E94F6150E94CA0ADF91CF91089505
:102C8000FC0124812223C1F0808191810E943316AE
:102C900092959F70963091F058F4925F9F709230A9
:102CA00058F4803F19F030F4883E30F481E0089504
:102CB0009A5FF4CF843FD1F380E00895883EB0F36B
:102CC000813FD1F7F3CFA6E0B0E0E9E6F6E10C945E
:102CD000B73049835A8349815A819923A1F022232D
:102CE00091F0CA010E940416182F682F89819A81D9
:102CF0000E942D0C69817A81812F0E94F6152696FB
:102D0000E3E00C94D330CA010E94F90B182FF2CFE4
:102D100085E290E00E94CF31833289F486E290E030
:102D20000E94CF31883059F487E290E00E94CF3181
:102D300091E0893109F090E0892F8170089580E059
:102D4000FCCFB0E0A0E0E7EAF6E10C94B2306C0111
:102D50007B0164E670E088E70E94F22D8C01E601B9
:102D6000EC0CFD1C17FD0BC0FE01849164E670E0C5
:102D70000E945E2E8C012196CE15DF0599F70E94E8
:102D8000D42E81E00115110509F080E0CDB7DEB742
:102D9000E8E00C94CE308091690390916A03911120
:102DA00003C091E089270895882369F062E070E00C
:102DB00081E195E00E94A116811103C08091690311
:102DC00008951092690380916903EBCFCF93C0916E
:102DD000690380916A038823D1F00E945E08605ADB
:102DE00075418F4F9F4F6093650370936603809387
:102DF000670390936803C11108C062E070E08FE040
:102E000095E00E94A116811105C0C09169038C2F25
:102E1000CF91089581E080936903F7CFB0E0A0E0FF
:102E2000E4E1F7E10C94AE3049015A016B017C01F9
:102E30000E9420098401A4016A2D7B2D88E090E086
:102E40000E94053294014A2D5B2DB601C70100E2B4
:102E50000E948831622F84E290E00E94F331CDB766
:102E6000DEB7ECE00C94CA30A3E0B0E0EAE3F7E1AF
:102E70000C94B130F82EE62E042FC22E90915D03F3
:102E800090FF44C020915E03281308C080915F0327
:102E9000861304C080916003841729F08091B802E2
:102EA00082608093B802E92FE695AE2FB0E0AB5672
:102EB000BE4F8C918093B6029E7F923059F5402F81
:102EC000093708F048E79E012F5F3F4F6E2D8F2D89
:102ED0000E9436094B8169818A810E941214F09206
:102EE0005E03E0925F0300936003CC2079F02091B1
:102EF0005D0360916103709162033F2D4E2D502F51
:102F000080916303909164030E940E172396E9E079
:102F10000C94CD30823019F400916003E0CF8630FC
:102F2000B9F18930A9F18931D1F6E9516E2F61707B
:102F3000B62EE695F0E0E65FFB4F1491D12C609140
:102F40004501D61618F00E94EC11C9CFD19EC001E0
:102F5000112470E00E9494308F2DB11017C0860F9D
:102F600020914301622F6D0D7727771F9B01220F60
:102F7000331F260F371F25543D4F402F093708F0C8
:102F800048E76E2D0E943609D394D9CF861BE8CF2F
:102F9000F22EA5CFEDE5F3E0438121E1421B08F4D9
:102FA00040E021E0628181810E9434170895EDE5BF
:102FB000F3E0438121E1420F08F44FEF21E0628109
:102FC00081810E9434170895EDE5F3E0628121E1EB
:102FD000621B08F460E021E0438181810E94341784
:102FE0000895EDE5F3E0628121E1620F08F46FEFEF
:102FF00021E0438181810E9434170895EDE5F3E0DB
:10300000818121E0438162818A500E9434170895B2
:10301000EDE5F3E0818121E043816281865F0E94DA
:103020003417089580916103882319F081508093AB
:10303000610320915D0330915E0340915F035091E5
:1030400060036091610370916203809163039091CA
:1030500064030E940E17089580916103833018F471
:103060008F5F8093610320915D0330915E034091F7
:103070005F035091600360916103709162038091DE
:103080006303909164030E940E170895EDE5F3E049
:1030900083E0808311828FEF828388E783831482A9
:1030A000A6EBB2E012968C911297836012968C93E5
:1030B000758123E030E04FEF58E760E0868197812B
:1030C0000E940E1708959091770392FB222720F912
:1030D000281779F080FB92F990937703609176033B
:1030E0007091770384E090E00E94113282E00E94A8
:1030F000940C089590E080E00E94DD31863E9E4F62
:1031000019F40E948816089580E00895A4E0B0E0C4
:10311000ECE8F8E10C94B73040913F025091400246
:1031200060914102709142022FB7F894809172032E
:1031300090917303A0917403B09175032FBF841B0A
:10314000950BA60BB70B11E084369105A105B105CF
:1031500070F10E94E2146E5F7F4F8F4F9F4F698323
:103160007A838B839C8380911101909112018D5BF6
:103170009D4F4091100150E04530510510F044E062
:1031800050E0BE016F5F7F4F0E94C63182E090E049
:103190000E941E30182F882351F00E945E08609311
:1031A0003F02709340028093410290934202812F2C
:1031B0002496E3E00C94D330ABE0B0E0E2EEF8E12B
:1031C0000C94B83088E0EDE5F3E0DE011196019053
:1031D0000D928A95E1F78091B6029091B702A09185
:1031E000B80289879A87AB872B8540915702509107
:1031F00058026091590270915A023FB7F894809139
:10320000720390917303A0917403B09175033FBF53
:10321000841B950BA60BB70B84369105A105B10550
:1032200010F4222319F18091190190911A018D5BFC
:103230009D4F4091180150E04C30510510F04BE08B
:1032400050E0BE016F5F7F4F0E94C63183E090E087
:103250000E941E30882369F00E945E086093570226
:10326000709358028093590290935A021092B802B8
:1032700081E02B96E2E00C94D430EF92FF921F9302
:10328000CF93DF9300D000D00F92CDB7DEB77B0194
:1032900090E080E00E941E30182F882309F487C038
:1032A0004091030150E04115510511F041E050E01B
:1032B00060910401709105016D5B7D4FCE01059613
:1032C0000E94C63140913B0250913C0260913D0208
:1032D00070913E022FB7F89480917203909173031E
:1032E000A0917403B09175032FBF841B950BA60B9F
:1032F000B70B84369105A105B10540F484E492E052
:103300000E94D7069D81891709F451C081E090E0A1
:103310000E941E3081111AC010E0809137029091F6
:103320003802A0913902B0913A02F701808391836B
:10333000A283B383812F0F900F900F900F900F9067
:10334000DF91CF911F91FF90EF90089540910B0175
:1033500050E04530510510F044E050E060910C0120
:1033600070910D016D5B7D4FCE0101960E94C631BB
:1033700084E492E00E94D7069D818913CDCF0E94FC
:103380005E0860933B0270933C0280933D029093F1
:103390003E0289819A81AB81BC81809337029093F0
:1033A0003802A0933902B0933A0211E0B6CF80916F
:1033B000440290914502A0914602B0914702898350
:1033C0009A83AB83BC831111E4CFA7CFA8E0B0E010
:1033D000ECEEF9E10C94B83066EE7EEF90E080E020
:1033E0000E94113260E082E090E00E94F33160E0E0
:1033F00083E090E00E94F3311092290260E074E1D2
:1034000084E090E00E94113260E086E090E00E944B
:10341000F3316FEF87E090E00E94F33140E050E03D
:10342000BA0188E090E00E94053260E084E290E01A
:103430000E94F33160E087E190E00E94F33160E0A8
:103440008CE090E00E94F33160E08DE090E00E941B
:10345000F33119821A821B821C821D821E821F82F6
:10346000188648E050E068E170E0CE0101960E94C5
:10347000E33140E050E0BA0180E290E00E94053282
:1034800080E00E949E150E94B71540E050E0BA010E
:103490008FE090E00E94053240E050E0BA0183E105
:1034A00090E00E9405322896E2E00C94D4301F92FE
:1034B0000F920FB60F9211242F933F934F935F9368
:1034C0006F937F938F939F93AF93BF93CF93DF932C
:1034D000EF93FF93D091E900DF708091EC00C82F4B
:1034E000C17080FDC0E81092E9008091F000877FF4
:1034F0008093F00078940E94060E1092E90080916B
:10350000F00088608093F000CD2BCF70C093E9006D
:10351000FF91EF91DF91CF91BF91AF919F918F91EB
:103520007F916F915F914F913F912F910F900FBEBF
:103530000F901F9018951F920F920FB60F921124A3
:103540002F933F934F935F936F937F938F939F93AB
:10355000AF93BF93EF93FF938091E10082FF09C087
:103560008091E20082FF05C08091E1008B7F809313
:10357000E1008091DA0080FF24C08091D80080FFB4
:1035800020C08091DA008E7F8093DA008091D9008C
:1035900080FF9DC080E189BD82E189BD09B400FE44
:1035A000FDCF81E080939D0380917803811109C054
:1035B0000E94EE060E948F078091E2008460809353
:1035C000E2008091E10080FF17C08091E20080FF5F
:1035D00013C08091E2008E7F8093E2008091E20030
:1035E00080618093E2008091D80080628093D8004F
:1035F00019BC85E080939D038091E10084FF2BC07E
:103600008091E20084FF27C080E189BD82E189BD0D
:1036100089B5982F917080FFFBCF8091D8008F7D66
:103620008093D8008091E1008F7E8093E1008091AB
:10363000E2008F7E8093E2008091E20081608093BF
:10364000E20080919E03882309F447C084E08093C0
:103650009D0380919D038091E10083FF27C08091AD
:10366000E20083FF23C08091E100877F8093E10027
:1036700082E080939D0310929E038091E1008E7FF3
:103680008093E1008091E2008E7F8093E200809140
:10369000E20080618093E20042E060E080E00E940E
:1036A0005D078091F00088608093F000FF91EF91BA
:1036B000BF91AF919F918F917F916F915F914F914A
:1036C0003F912F910F900FBE0F901F90189519BC2E
:1036D00010929D031092780374CF8091E30087FDD0
:1036E00093E090939D03B5CF78941F921FB61F92DD
:1036F00011248F939F93AF93BF9380917203909106
:103700007303A0917403B09175030196A11DB11DBF
:103710008093720390937303A0937403B093750323
:10372000BF91AF919F918F911F901FBE1F901895D1
:103730009C014FB7F8948091720390917303A0910C
:103740007403B09175034FBF821B930B08952FB77D
:10375000F8948091720390917303A0917403B091D7
:1037600075032FBF08950F931F93CF93DF93C62F39
:10377000D42F022FFC0185818823A9F06093E303F5
:103780000E94A71B9093E2038093E103C77081E03E
:1037900001C0880FCA95EAF70E94CB10DF91CF9144
:1037A0001F910F9108958091E303681332C08091B7
:1037B000E1039091E2030E94981B883C910548F533
:1037C00010E21D0FCD17B9F080E28C0F883040F465
:1037D000C77081E001C0880FCA95EAF70E94C41043
:1037E000183048F481E09D2F977001C0880F9A959A
:1037F000EAF70E94CB10802F0E94FC14183070F65C
:10380000D77081E001C0880FDA95EAF70E94C410F2
:10381000C5CFC77081E001C0880FCA95EAF7F6CF1F
:103820000E94AC14882319F00E94A71B08950E94DF
:10383000E214CB01089560915D03669570E04BE062
:1038400050E083E391E00E94AC31892B19F481E0D0
:103850008093B7020E94101C9093B1028093B00233
:103860008091B80284608093B802089590915D03BE
:1038700090FF39C09170811137C0926090935D03C1
:103880008091B80281608093B802662391F0209104
:103890005D0330915E0340915F035091600360913E
:1038A00061037091620380916303909164030E94AD
:1038B0000E1760915D03669570E04BE050E083E386
:1038C00091E00E94AC31892BB1F00E94190981E08E
:1038D0008093B30220E04091600360915F03809188
:1038E0005E030E9434170895833210F09464C6CFAB
:1038F000880F982BC3CF0E941B1CE9CF80915D03DA
:103900008695815009F482E261E00E94361C089598
:1039100080915D0386958F5F833208F081E061E0DE
:103920000E94361C089590915D0390FF08C0969503
:10393000981728F0961718F40E94881C089561E0E3
:103940000E94361C0895A8E0B0E0E9EAFCE10C947E
:10395000AA308C01DC0114968C911497882309F409
:10396000B8C021E04C9111965C91119712966C9120
:10397000129713967C91139715969C910E9463164B
:103980007C01F8019581992309F4C2C59701375745
:103990002038310508F036C1FFE0FE1508F489C073
:1039A0008FEF93E00E94CF31811183C069EAA62E88
:1039B000BB24B394E11047C0FE01339686E0DF01DB
:1039C0001D928A95E9F75AE0452E7501BFEFEB1A73
:1039D000FB0AC5010E94CF3189831A82882309F42A
:1039E00068C0813009F079C06501E2E0CE0ED11CDB
:1039F000C7010E94CF318A83882309F45AC09FEF00
:103A0000980F933070F5F3E0AF0EB11CC6010E9421
:103A1000CF318B83882309F44CC01C82DE011196C0
:103A20007D01F7012081222381F2213009F095C028
:103A300091818281913009F052C0F2E0EF0EF11CC9
:103A40000E94FC1453C0A11424E0B20691F1C501F8
:103A50000E94CF31811101C0EA943FEFA31AB30A4B
:103A6000A9CF56018430D1F642E0E42EF12C560164
:103A70002FEFA21AB20AC6010E94CF31E1E0F0E0B6
:103A8000EC0FFD1FEE0DFF1D8083882391F08C3716
:103A900041F4E2E0F0E0EC0FFD1FEE0DFF1D10829F
:103AA000BDCF3FEFE31AF30A650187E0E816F104A2
:103AB000F1F680910502877061F0D80115968C911E
:103AC000882339F08091770382FF03C082E00E944F
:103AD000940C2896E0E10C94C63057019FCF9230A9
:103AE00049F422E0E20EF11C0E940211EFEFEE1AFF
:103AF000FE0A97CF933031F432E0E30EF11C0E94BE
:103B0000D510F4CF943021F08FEFE81AF80AEECFF9
:103B100092E0E90EF11C30E020E0B7016F5F7F4FCB
:103B2000D70111964C918053990B8A30910550F032
:103B300021503109D8F2EFE9FFE03197F1F700C0E9
:103B40000000F6CF429EF001439EF00D11249C012F
:103B50002E0F3F1F842F7B01E0CFE22FF0E0E555D1
:103B6000FE4F5490822F86958695869590E0FC01B5
:103B7000E556FE4F64902770712C022E02C075949A
:103B800067940A94E2F731E063227724FC01E55759
:103B9000FE4F8490912C022E02C0959487940A9433
:103BA000E2F7A1E08A229924FC01E558FE4FC49077
:103BB000D12C02C0D594C7942A95E2F7B1E0CB226C
:103BC000DD246114710419F081EE0E940211811448
:103BD000910419F086EE0E940211852D0E94FC14BA
:103BE0008114910419F086EE0E94D51061147104BD
:103BF00019F081EE0E94D510C114D10409F476CFDA
:103C00008CE21ECF80E280932B01F0928002E09242
:103C10007F02970130522115304238F4D8011696B0
:103C20008C91807FF1F0F7010AC097013054211583
:103C3000304108F5F8018681807FF70109F0FF2700
:103C4000ED33F10570F4E55DFD4FE491E0932B0158
:103C5000D80111968C911197809382028C91809358
:103C60008102F701E851FC47E730F10578F5ED5C9A
:103C7000FD4C0C942F3197013A9521153F4198F254
:103C80009701205A32452032310558F3F701D8CF39
:103C900026E241EE61EEC8010E94B31B0ACF27E283
:103CA00045EE65EEF8CF26E241EE60EEF4CF27E276
:103CB00045EE64EEF0CF26E241EE62EEECCF27E275
:103CC00045EE66EEE8CF28E241E0EBCF1092E30349
:103CD000970130572332310508F035C484E090E075
:103CE0000E94DD319093770380937603F701E150D2
:103CF000F047E232F10520F4E65CFD4C0C942F31E4
:103D00008091760381608093760395C080917703DC
:103D10008860809377038FC0809176038260F3CFB1
:103D2000809176038460EFCF809176038860EBCF3B
:103D3000809177038160EDCF809177038260E9CF36
:103D4000809176038061DFCF809176038062DBCF44
:103D5000809176038064D7CF0E94E60D8091760330
:103D60008068D1CF809176038C60CDCF809177032E
:103D70008360CFCF809176038E7FC5CF809177030C
:103D8000877FC7CF809176038D7FBDCF80917603EB
:103D90008B7FB9CF80917603877FB5CF80917703F2
:103DA0008E7FB7CF809177038D7FB3CF80917603DD
:103DB0008F7EA9CF809176038F7DA5CF80917603EA
:103DC0008F7BA1CF0E94E60D809176038F779BCFEA
:103DD00080917603837F97CF809177038C7F99CFF3
:103DE0008091760382FB992790F921E0922790FB3E
:103DF00082F990FB83F987CF80917703982F909574
:103E000091708E7F892B90FB81F983CF90917603FF
:103E1000892F8F7B96FF806476CF0E94E60D90916C
:103E20007603892F97FB87F980586DCF61E08EE08C
:103E300090E00E94F331609176037091770384E003
:103E400090E00E9411320E94E60D33CE60E0EFCF89
:103E500090917603892F8F7E94FF806154CF90914B
:103E60007603892F8E7F90FF81604DCF90917703ED
:103E7000892F877F93FF88604CCF8091EA0169E2A8
:103E8000811165E38AEC91E00E946A0871C399236D
:103E900009F44BC3B7E7EB16BCE7FB0609F4F1C026
:103EA00082E0E8E7EE16ECE7FE0609F4EBC023E05B
:103EB000E2162CE7F20609F412C108F0F1C0E11491
:103EC0008CE7F80609F4FEC091E0E9169CE7F906D4
:103ED00009F086C00E941A1580915D0380FF1EC004
:103EE000282F2E7F20935D0330915E0340915F0366
:103EF000509160036091610370916203809163034C
:103F0000909164030E940E170E9419098091B802D3
:103F100081608093B8020E94EC11CBCD81608093C8
:103F20005D0361E086950E94361CC3CD4EE75CE1DF
:103F300068E87CE10E941309BCCD48E85CE16EE7CB
:103F40007CE1F8CF4EEF57E168E078E1F3CF48E04D
:103F500058E16EEF77E1EECF44EE57E161EF77E1A4
:103F6000E9CF41EF57E164EE77E1E4CF4AEC57E166
:103F700067ED77E1DFCF47ED57E16AEC77E1DACF24
:103F800042E158E16CE278E1D5CF4CE258E162E1E0
:103F900078E1D0CF61E081E0C6CF65E082E00E94A9
:103FA000931C87CD68E086E0FACF6EE089E0F7CF1A
:103FB00064E18FE0F4CF67E185E1F1CF61E088E172
:103FC000B2CF62E289E1EBCFE7E7EE16ECE7FE065F
:103FD00009F460C0F8E7EF16FCE7FF0609F45EC0DD
:103FE000F8018581E080F180882309F48BC0C70146
:103FF0000E940416D82E682FC7010E942D0CB7010D
:104000008D2D0E94F6150E94CA0A7C01882ED801C7
:104010001596AC90159716969C9092943FE093223B
:10402000809105028770F1F0CA2CAA20E1F08F2D53
:10403000807F803451F080E28E0D883098F09110AE
:1040400004C08F2D807E803269F08091770382FFDB
:1040500009C082E00E94940C809105028770CC24F4
:10406000C3948111C12CBF2CB2942FE0B222BBE0CB
:10407000BB1508F4AFC0EB2DF0E0E45AFD4C0C94F6
:104080002F3181E00E94AB0C43E062E081E00E94AE
:10409000670C0FCD81E00E94870CF6CF82E0FBCF4A
:1040A000ABE5EA16ACE7FA0659F1BCE5EB16BCE75E
:1040B000FB06E1F0EAE5EE16ECE7FE0609F090CF2C
:1040C00081E01BC00E94E60DFFEF24E33CE0F150CD
:1040D00020403040E1F700C000000E944D086FEF23
:1040E0007FEF90E080E00E941132F4CE8091770360
:1040F00082FB882780F991E089270E94631870CF9E
:1041000080E0FBCFC7010E94F90BD82E78CFEF2DAE
:10411000EF70DE2E8F2D807F19F0D29490EFD92290
:10412000AA20B9F0DD2069F080E28E0D883010F011
:10413000811009C080912802D82AD09228020E94BA
:10414000910D8E2D45C080912702D82AD09227024A
:10415000F6CF8E2D0E94D510DD20E1F180E28E0D8C
:10416000883010F0811004C08D2D0E94E80B06C02D
:10417000D09480912702D822D09227020E94910DDC
:1041800029C0FF2DFF70DF2E8F2D807F803219F028
:10419000D29480EFD822882059F021E0821609F4C9
:1041A00081C0AA2009F48DC0992009F44FC0C9CF5D
:1041B0008091770382FD46C0AA20F1F1DD2039F01D
:1041C00080912802D82AD09228020E94910D80E086
:1041D0000E940211AB2DA850BB0B149710F40E9443
:1041E000D114CC20A9F08091050280FD11C0F80106
:1041F00015828695869586950E94AB0CC8010E9413
:10420000A31C809105028695869586950E94870C51
:1042100020E0D8014C9111965C91119712966C9107
:10422000129713967C91139714968C911497159668
:104230009C910E9463164DCC80E00E94D510DD2039
:1042400049F292CFAA20A1F0911004C08D2D0E94B6
:10425000CB10C0CF31E09312BDCF809126029D2DAF
:104260009823D91609F4B6CFD82AD0922602B2CF15
:104270009110B0CF8D2D0E94C410909126028D2DEB
:10428000892329F08D2D80958923809326028091A2
:10429000EB019D2D982309F49DCFD094D822D09284
:1042A000EB0198CFAA2029F085E0891508F492CF78
:1042B000CDCF94E0991508F48DCF8D2D0E94C410B8
:1042C00089CF9920D1F3A9E38A1209C0BFEFE7EEA5
:1042D000F3E0B150E040F040E1F700C000008E2D67
:1042E0000E94D51077CF8F2D86958695837061F0CB
:1042F000813009F06FCFC7019370A11002C080E038
:1043000090E00E94C90866CFC7019370A11002C057
:1043100080E090E00E94EE085DCF8F2D837091F5D4
:10432000A11058CF4E2D429546954770440F440F2B
:104330008E2D8F70042E01C0880F0A94EAF72E2D5F
:104340002071E4FE07C02FE030E001C0220F4A9543
:10435000EAF720953F2D369536953370323069F067
:1043600050F440912902313029F0822B84230E949D
:10437000B70C30CF842B822BFACF282B80912902C7
:104380008227F5CF8695AA2011F08F2D8170882382
:1043900009F420CF4E2D429546954770440F440FA7
:1043A0008E2D8F70042E01C0880F0A94EAF72E2DEF
:1043B0002071E4FE07C02FE030E001C0220F4A95D3
:1043C000EAF720953F2D369536953370323069F0F7
:1043D00050F440917702313029F0822B84230E94DF
:1043E000640CF8CE842B822BFACF282B8091770295
:1043F0008227F5CF2F2D2F70F22EAA2029F0822FA1
:104400000E94AB0C8E2D23CF8E2D0E94C4108F2DB9
:104410000E94870CDFCE8E2D32EF8316B1F1381556
:1044200070F090EF8916D1F0A1EF8A1691F0AA20D2
:1044300009F45EC0911085CE8F2D8F712AC0B3EF25
:104440008B1651F1E4EF8E12F2CF8091770382FD4B
:104450002FC08F2D8F71AA20D9F21BC0AA2081F006
:10446000F4E0F91508F4B6CE2F2D2F7181E090E01D
:1044700001C0880F2A95EAF7909177028927AFCF7C
:1044800025E0291508F4A6CEEFCF8F2D8F71A1104E
:10449000BFCF0E94AB0C9ECE80E0AA2009F49FCF34
:1044A0009F2D9F7181E001C0880F9A95EAF797CF01
:1044B000AA2099F03F2D3F71F32E832F0E94AB0C61
:1044C0008091770382FF07C0A8E0FA9EC001112403
:1044D0008360809305028F2DDCCF81E00E94940CD5
:1044E000B1E0B91508F076CE82E00E94940C72CE4D
:1044F000992059F0893309F0F2CEEFEFF7EE23E07F
:10450000E150F0402040E1F7E8CE8F2D8F7180CF51
:10451000F701E851FC47E730F10508F4A8CBB6E114
:10452000EB16BCE7FB0609F4A8CC80912802827246
:10453000F701E052F847E531F10508F045CDE859BB
:10454000FD4C0C942F31F6E1EF16FCE7FF0609F065
:104550009ECC809128028A7A91E009F490E09093B1
:10456000EA0169E2811165E38AEC91E00E94940816
:104570000E94910D9ECACF93DF9380910402807FA9
:1045800009F04DC080910302882309F448C0E091EE
:10459000E0035091A703C091FF01D091FE0160910B
:1045A00000027091010247E05E17C9F18E2F90E082
:1045B000E49FF0011124E855FC4F2481222391F15E
:1045C000489FF001499FF00D1124DF01A855BC4F11
:1045D00011962C9111972C1325C02C912D1322C0CC
:1045E00015962C91159721111DC012962D913C9175
:1045F000261B370B283C3105A8F4809104028F70EC
:10460000806180930402E255FC4F80818F7080614D
:1046100080838EEF91E00E94A31C0E94EF0BDF913C
:10462000CF910895FC013196E770BECFA4E1B0E0D0
:10463000ECE1F3E20C94AE308C0186E0F801DE018F
:104640001F9601900D928A95E1F7F8018481E5802B
:104650009EEFA92E91E0B92E90910202911128C0EF
:10466000882319F1EE20F1F0C8010E944016F82EBF
:104670008823C1F087E0F801D50101900D928A9559
:10468000E1F780910202813031F48091FE01909136
:10469000FF010E9433160E94BB228F2D6496ECE02E
:1046A0000C94CA30C8010E94A31CFF24F394F5CFD8
:1046B000D080C18082809380F0900302209100021C
:1046C00030910102A401421B530BFF2009F4D9C011
:1046D000483C510508F092C08823F9F29091FF01FF
:1046E00080910402282F207F09F056C0C91214C0FF
:1046F0009091FE01D91210C0E11048C08F70806106
:10470000809304028EEF91E00E94A31C809104022A
:10471000F8018683F12CC1CFE11038C06C2D8D2DAE
:104720000E94B8066C2D8D2D0E94B806E82E8111CE
:10473000F1CFDF86C88A8F8598890E943316292F8A
:1047400022952F70243058F49F70223088F09923DE
:1047500099F0F8019681907F79F4FE2C9ECF2A5F24
:104760002F70223068F0C8010E94A31CEF2CF5CFF7
:10477000992311F0882389F3805E883070F3F3CF9A
:10478000803F58F3815F833070F7E7CF8091040258
:10479000816080930402BECFC91207C09091FE01D0
:1047A000D91203C0EE2009F48DC0C8010E94401642
:1047B000882309F477CFEE2009F474CF80910402A6
:1047C000803288F02091FE013091FF0139872887DF
:1047D0009B868A86909102029C871D868E87CE01D9
:1047E00008960E94A31C87E0F801AEEFB1E00190AB
:1047F0000D928A95E1F70E94BB2257CF9091040257
:10480000292F207F51F48EEF91E00E94A31C87E0B6
:10481000F50111928A95E9F77DCF882309F43DCF00
:104820008091FF018C1110C08091FE01D8120CC044
:10483000E1100AC09683C8010E94A31C87E0F5011D
:1048400011928A95E9F729CFC8010E944016882362
:1048500009F428CFEE2009F425CF8091040280329C
:1048600010F22091FE013091FF013A8329839C824E
:104870008B82909102029D831E828F83CE010196CE
:10488000B0CF483C5105D0F6882309F40ECFFE2C5A
:10489000EE2009F407CF8091FF018C1120C0809198
:1048A000FE01D8121CC08091040280FD0FC0982F19
:1048B000907F61F08683903F31F0982F907F905FDA
:1048C0008F70892B8683C8010E94A31C87E0F801A2
:1048D000AEEFB1E001900D928A95E1F7DECEC8010E
:1048E0000E94401681117FCF8091040281608093E5
:1048F0000402C8010E94A31CD0CEABE1B0E0E3E803
:10490000F4E20C94B6304E8B5F8B688F798F8A8F70
:104910009B8F192F9111109227021D8A86E0FE01AC
:104920007696DE011F9601900D928A95E1F70A8D29
:10493000002341F021E04F85588969897A89C801AF
:104940000E9463160B8B1C8B87E0FE013F96DE01F5
:10495000189601900D928A95E1F7CE0108960E9473
:10496000162381110CC087E0FE013896DE011196F6
:1049700001900D928A95E1F78C8581110BC017E0AB
:104980008091E0039091A703891331C06B96E4E016
:104990000C94D2302091A70330E0C90101968770B2
:1049A00099274091E0034817190699F097E0929FE4
:1049B000D001939FB00D1124A855BC4FFE01319634
:1049C00001900D929A95E1F78093A7030E94EF0B57
:1049D000D6CF0E94E60D1092A7031092E00387E065
:1049E000EEEFF1E0DF011D928A95E9F7C8CF819FD4
:1049F000C001112488559C4F0E941623882331F250
:104A00008091E00390E00196877099278093E003FE
:104A1000B7CFA3E1B0E0EFE0F5E20C94AD308E014A
:104A2000045F1F4F88E0D8011D928A95E9F783E85B
:104A3000C82E81E0D82EF12CE12CAA24A394B12C0D
:104A40002DE8822E21E0922EF60181916F018F3F99
:104A500009F442C0F894E82FE295EF70F0E021A14C
:104A60008F70A50102C0440F551F8A95E2F7CA0155
:104A7000922F982B91A392A18095892382A3789459
:104A800000C0E7E8F1E0712C31E021912F3F09F4FB
:104A90006BC0A22FA295AF70B0E090968C9190E081
:104AA0002F7002C0959587952A95E2F780FD5CC02E
:104AB000832F782A330F8E169F0639F7F601319728
:104AC00080818F3F11F00E94CE0950EA5A95F1F78C
:104AD000F801EE0DFF1D70828FEFE81AF80AA4E0CE
:104AE000EA16F10409F0B0CF48E050E0B80180E6E2
:104AF00092E00E94B931009741F028E0F801A0E669
:104B0000B2E001900D922A95E1F700916902892B9C
:104B100069F181E080932E020E94A71B90932D02E1
:104B200080932C0280912C0290912D020E94981B60
:104B3000059700F110E008551D4F44E050E060E695
:104B400072E0C8010E94B931B12C892B51F084E088
:104B5000E0E6F2E0D80101900D928A95E1F7BB24DE
:104B6000B39410922E0207C080E0A3CF80912E0252
:104B70008111D8CFB12C0E94AC14A82EE09169020B
:104B8000882309F47DC019821A821B821C820E2F91
:104B900010E008551D4F80915B028A30D8F54DE337
:104BA00059E1BE016F5F7F4FC8010E9479148823CD
:104BB00009F455C046E858E1BE016F5F7F4FC80158
:104BC0000E947914882309F44AC04CED58E1BE01D3
:104BD0006F5F7F4FC8010E947914882309F43FC09A
:104BE00010925B028091680290E044E050E0BE01C8
:104BF0006F5F7F4F88559D4F0E94B93121E0209310
:104C00003502892BF1F4A12C8A2D8B296396EDE0D6
:104C10000C94C93080912F02909130020E94981B11
:104C2000843F914008F0BBCF80913502882359F32F
:104C300084E0FE013196DF011D928A95E9F710921A
:104C40003502E0916802F0E0E855FD4F89819A81D4
:104C5000AB81BC8180839183A283B383D5CF8091C4
:104C60005B028F3F31F08F5F80935B028A3008F4E4
:104C7000B9CF0E94A71B9093300280932F02D4CF0C
:104C8000F0E0E855FD4F84E0A4E4B2E001900D921D
:104C90008A95E1F784E492E00E94D706809343026C
:104CA000C0904802D0904902E0904A02F0904B0236
:104CB0008091310290913202A0913302B09134027E
:104CC000C816D906EA06FB06D1F0C0923102D0928E
:104CD0003202E0923302F09234020E94AC1481114D
:104CE0000EC00E945E08C61AD70AE80AF90AC092E6
:104CF0005C02D0925D02E0925E02F0925F028BE075
:104D0000ECE4F2E0DE01119601900D928A95E1F754
:104D100080914C028695F0904D02E0904E02D0902A
:104D20004F02009155021091560210925602112323
:104D300009F46ACF10FF0BC0998190FF1CC09091BD
:104D40005D03916090935D0360E00E94361C11FF4B
:104D500006C020E04D2D6E2D8F2D0E94341712FFBE
:104D600004C0002359F00E941B1C13FF4DCF81E0AB
:104D70008093B30249CF0E946A14E9CF0E941909B7
:104D8000F4CFA6E0B0E0E7ECF6E20C94B6300E9477
:104D9000A71B8C0180912A0290912B02801791070A
:104DA00081F019821A820E94A71B682F49815A81BB
:104DB000792F80E090E00E947D2410932B020093D5
:104DC0002A022696E4E00C94D2301F921FB61F925E
:104DD00011248F939F93AF93BF938091710381119F
:104DE00013C08091720390917303A0917403B091EA
:104DF00075034196A11DB11D8093720390937303B7
:104E0000A0937403B0937503BF91AF919F918F915D
:104E10001F901FBE1F901895CDB7DEB7AB970FB68A
:104E2000F894DEBF0FBECDBF85B7806885BF85B75C
:104E3000806885BF84B7877F84BF0FB6F894A89534
:104E400080916000886180936000109260000FBEC6
:104E500080E890E00FB6F894809361009093610031
:104E60000FBE8CEC99E09093C9018093C8010E9419
:104E7000EE060E948F078091E20084608093E2003A
:104E8000789480919D038823A1F01091E9001F7010
:104E90009091EC00892F817090FD80E8182B109282
:104EA000E9008091E80083FD0E94060E1F701093B8
:104EB000E90082E084BD93E095BD9AEF97BD8093B1
:104EC0006E0010925C0210925D0210925E021092CF
:104ED0005F020E948816811102C00E94B7150E94CD
:104EE000AC148093200180912001882309F475C0BF
:104EF000109241018BE1809342010E94AC14811118
:104F00000E94322F809120018091200194E0811134
:104F100090E09093690284E0891B8093680284E9A1
:104F20000E94CE0986E60E94CE0987E90E94CE093A
:104F300086EC0E94CE0907E811E03DE8E32E31E05F
:104F4000F32ED8018D918D018F3F11F00E94CE0973
:104F5000E016F106B1F788E0E8EAF2E0DF01282F79
:104F60001D922A95E9F7E0E6F2E0DF011D928A95AD
:104F7000E9F70E947A18811102C00E94E61982E0C6
:104F800090E00E94CF3180936B0284E090E00E9419
:104F9000DD3190937703809376030E940925BFEF5C
:104FA000E6E7F1E0B150E040F040E1F700C000007A
:104FB0000E9409250E94AC14E4E08111E0E0F0E0D9
:104FC000E855FD4F808181FF0CC06FEF7FEF90E0CF
:104FD00080E00E9411320E944D088BE180934101D4
:104FE0008ACF83E090E00E94CF310E94B70C0E94EC
:104FF000AC14811130C182E08093A30280E88093D9
:10500000E9030E94EC2D6BE070E08EE792E00E94D5
:10501000A1168823E9F18091A30265E070E081FD8B
:105020001CC189E792E00E94A116882389F16DE0F6
:1050300070E087E692E00E94A116882349F10E9461
:105040005E08605A75418F4F9F4F60936503709360
:1050500066038093670390936803ECEEF3E080E0CF
:1050600092E0DF019C011D9221503040E1F7F09366
:10507000F305E093F2058FEF9FEF9093EB0380939E
:10508000EA0381E080936A03809369031092A4028B
:1050900080916A02811178C00E947A18811104C03F
:1050A0000E94E6190E94461888E090E00E94D731DD
:1050B0004B015C0184E290E00E94CF31282F30E068
:1050C00040E050E060E070E080E090E000E20E94AC
:1050D0006D31282939294A295B2920935D033093B2
:1050E0005E0340935F03509360036093610370938A
:1050F000620380936303909364038091B80283609A
:105100008093B8022E7F89F50E94461888E090E0CF
:105110000E94D7316B017C0184E290E00E94CF3184
:10512000282F30E040E050E060E070E080E090E068
:105130000E946D31B22FA32FF42FE52F5B01970151
:105140008601BC29A12BFE29E32BB0935D03A0931C
:105150005E03F0935F03E093600360936103B0929A
:10516000620380936303909364030E9420090E946A
:10517000190980915D0380FF04C060E086950E945C
:10518000361C81E080936A020E94AC14811102C037
:105190000E94352F81E291E090936E0380936D031E
:1051A0002AE0822E912CA12CB12C80919D0300E14C
:1051B00012E1853009F48EC00E9409250CE612E048
:1051C00098EAE92E92E0F92ED701F80191918D919C
:1051D00032E0E437F30709F487C09817B9F30E9467
:1051E000AC14482ED12C33243394D701CD907D01BB
:1051F000F80151908F015C1429F15C24712C662414
:105200006394852D8621B1F04420A1F079A2DAA221
:105210000E94A71B9CA38BA33DA291E08C2D86210D
:1052200009F490E09EA349A15AA16BA17CA18DA194
:105230000E947D247394660CF6E07F12E2CFF801A1
:105240003197C082D39428E0D212CFCF0E94E214CB
:1052500031E03FA34EC080E0CFCE84E792E0E3CEC2
:1052600080919D03843031F10E94CB16109271031E
:1052700088E190E0A0E40FB6F894A89580936000D0
:105280000FBEA093600083B7817F846083BF83B724
:10529000816083BF7894889583B78E7F83BF0FB674
:1052A000F894A895809160008861809360001092C6
:1052B00060000FBE80919C03882361F00E94092545
:1052C000E8EAF2E08191811168C420EB32E02E1708
:1052D0003F07C1F780919D03853009F4C1CF0E943B
:1052E000E60D0E94D11468CF981379CF0E94C12691
:1052F0001FA20E94AC148091B702882309F464C0F5
:105300008091B602E0915D03E695E81BE093B2025E
:10531000823009F08FC0F0E0EB56FD4FE4910E2F84
:1053200010E086E5E82E84E1F82E8091B302882310
:1053300061F01092B3020E94101C9093B10280930E
:10534000B0021092B5021092B4020E94101CE091BB
:10535000B002F091B1029C012E1B3F0B2F3F3F4743
:1053600098F5209176022223B1F0109276022091D6
:10537000740230917502821B930B8F3F9F4758F444
:10538000205D3A4830937502209374028091B802F0
:1053900088608093B802C090B402D090B502E00F4C
:1053A000F11FF093B102E093B00280EB92E0F701BD
:1053B00009958091B4029091B502892B29F4CD28EA
:1053C00019F081E08093760280916A03882309F4C2
:1053D000DFC08091A5029091A6020E94981BC297FF
:1053E00008F4B6C00E94A71B9093A6028093A50262
:1053F0008CEE93E09093F3058093F2050E94AC1439
:10540000882309F43BC18AEB92E00E944B0D809106
:1054100077020E94BA0C813009F4F2C0882309F4A3
:105420004FC0823009F4EFC0833009F4EFC089E93E
:1054300092E048C0863059F4F0E0EE56FD4FE4911A
:105440000E2F10E0B6E4EB2EB4E1FB2E6ECF8930C8
:1054500061F4E695F0E0E157FD4FE4910E2F10E086
:10546000A2EDEA2EA3E1FA2E60CF8F3061F4E6952B
:10547000F0E0E457FD4FE4910E2F10E0F4E4EF2E3E
:10548000F3E1FF2E52CF853159F4F0E0E757FD4F9D
:10549000E4910E2F10E0ECEBEE2EE2E1FE2E45CF74
:1054A00008E210E077E3E72E72E1F72E883109F485
:1054B0003CCF00ED17E068E4E62E68E0F62E35CF2D
:1054C00082EB92E00E948B0D809182020E94510635
:1054D000FC01019620812032D9F3CF010E946E1188
:1054E00088EC92E00E944B0D809181020E9451064F
:1054F000FC01019620812032D9F3CF010E946E1168
:1055000084EC92E00E944B0D40907F02509080020C
:105510008091290190912A014816590609F079C015
:1055200080917E02803209F074C028E732E0C90120
:105530002F5F3F4FFC0140814032C9F30E946E1142
:1055400082EC92E00E944B0D80912B010E94CB0CCB
:105550008091EA039091EB03892B09F094C080912C
:1055600069038823A9F00E945E08009165031091E9
:1055700066032091670330916803601B710B820BF7
:10558000930B6F3F7F4F8F4F9F4710F40E94CB16B6
:105590004FA141110E94E6160E94D1149091A702DA
:1055A000891721F08093A7020E945E0880919D03D5
:1055B000843009F0FACD83E08093E9008091E8001F
:1055C00082FFF3CD8091E80090E085FF06C00E9445
:1055D0000D07882309F438C191E08091E8008B77AA
:1055E0008093E800992309F4E0CD8981EFEFE80F7B
:1055F000E33108F050C1F0E0E358FD4C0C942F313A
:105600008CEA92E05FCF86EA92E05CCF8FE992E08D
:1056100059CF50922A014092290180E280937E0264
:10562000712C612C10927D0253E7E52E52E0F52E8D
:1056300008E712E0C301B201A50194010E940D31F7
:10564000605D603321F4F2E008371F0731F0411448
:1056500051046104710409F460E2D80114966C935A
:10566000C301B201A50194010E940D3129013A0143
:1056700001501109E016F106E9F657CF8AEC92E0E5
:105680000E944B0D65CF80916A03882309F467CF90
:105690008091A402811163CF0E94E6162091EA0353
:1056A0003091EB032115310509F459CF80E041E039
:1056B00050E0082F10E02A01082E02C0440C551CAF
:1056C0000A94E2F7B90164217521672B11F48F5F09
:1056D000F0CF9091A30290FF9EC0880F880F880F93
:1056E00080932E0110923101895F80932F0183E016
:1056F0008093320124E630E047E050E06CE271E054
:1057000088E70E948C2E892B09F029CFA80195E00B
:10571000440F551F9A95E1F78091A30280FF8DC039
:10572000E3E8F2E080E2DF011D928A95E9F7E1E922
:10573000F1E0FBA7EAA76DE871E087E0E82EDD2441
:10574000D394AAA5BBA52D91BBA7AAA7FB01219025
:10575000BF01240E352E311CC10184519C4F1C0108
:10576000E22FF0E0ED57FD4F90E080E06E2C681ADC
:10577000FD2C082E01C0FF0C0A94EAF739A628A6D2
:1057800000E0A8A5B9A51D91B9A7A8A71F21262D9E
:10579000201B2770C22E022E000C330BB12F01C02C
:1057A000BB0FCA94EAF7CB2E3195219531092770AA
:1057B000332701C016952A95EAF7C12A1081C12A1C
:1057C000C0820F5F0830E9F6019631968830910566
:1057D00069F6E5E9F1E02AA53BA5E217F30709F030
:1057E000B0CF04E610E020E230E043E852E060E4AD
:1057F00088E70E94AD2E892B09F0B1CE40945094D9
:105800008091EA039091EB03482259225092EB03D6
:105810004092EA03A4CE8295880F807680932E0171
:105820009801369527953695279520933101815E0D
:1058300080932F01209332015DCF44515C4F04E6E9
:1058400010E020E230E0D3CF00E210E0CE0101967C
:105850007C018091E80085FD0AC08091E8008B778B
:105860008093E8000E940D07882399F3B5CE8091BC
:10587000F100D7018D937D010150110951F7ACCE94
:105880001A828CE08B831BC08A81823009F49BC111
:1058900028F4813061F08FEF898311C08330C1F02B
:1058A0008430C9F71B821C821D821E8208C00E94A0
:1058B0005E080E9435316B837C838D839E8340E23A
:1058C00050E0BE016F5F7F4F82E00E9486116DCC79
:1058D0002B81822F90E0FE013496245E8830910562
:1058E00070F7DC01A855BD4F3C9131930196281308
:1058F000F5CFE5CF8A81823049F0853061F680911D
:105900005D0380FF0EC00E946A14D9CF6B817C8139
:105910008D819E810E94353188E290E00E94F331B2
:10592000CECF816080935D0360E086950E94361C37
:10593000C6CF4C816B818A810E94C7159827892721
:1059400098279E838D83BBCF2D813E8132272327CD
:1059500032274C816B818A810E944015B0CF0E9412
:105960006615ADCF9A81923009F095CF8830D9F184
:10597000893009F463C08B81823009F1A8F4813049
:1059800009F09DCF8C81B8E78B9FC00111246FEF88
:1059900070E00E949430462F20E060915F03809178
:1059A0005E030E9434178BCF8330C9F0843009F036
:1059B00086CF20E0409160036D818C81F2CF8C8195
:1059C000882309F4A0CF80915D03816080935D03FB
:1059D00060E086950E94361C60E08C81A7CF8C81A8
:1059E000809361036CCF8B818230E1F078F4813059
:1059F00009F065CF80916003EFEF8E9FC001112405
:105A000068E770E00E9494306C8359CF833099F03E
:105A1000843009F054CF80915E038C8380915F03C2
:105A20008D834DCF80915D0380FF03C086958C836D
:105A300046CF80E0FCCF80916103F9CF20915D03D8
:105A400030915E0340915F03509160036091610368
:105A50007091620380916303909164030E940E171A
:105A60002ECF80E18A832BCF82E08A8387E50ACF1D
:105A7000CA80DB80DC24CD24DC248E010F5F1F4F25
:105A8000EC80E00EF12EF11CC60187559E4F0E15DD
:105A90001F0509F414CFF7E5CF16F2E0DF0658F43E
:105AA0000E94CF31D80114968C93FFEFCF1ADF0AF2
:105AB0000F5F1F4FE9CFF8011482F7CF0A811B81D6
:105AC0001027012710279E012F5F3F4F6901EC80AF
:105AD000E00EF12EF11CC80187559E4FE016F1062D
